:020000040000fa
:080000000002040000000000f2
:020000040000fa
:04000800c80200002a
:020000040000fa
:04000c00c802000026
:020000040000fa
:04001000c802000022
:020000040000fa
:04001400c80200001e
:020000040000fa
:04001800c80200001a
:020000040000fa
:04001c00c802000016
:020000040000fa
:04002000c802000012
:020000040000fa
:04002400c80200000e
:020000040000fa
:04002800c80200000a
:020000040000fa
:04002c00c802000006
:020000040000fa
:04003000c802000002
:020000040000fa
:04003400c8020000fe
:020000040000fa
:04003800c8020000fa
:020000040000fa
:04003c00c8020000f6
:020000040000fa
:04004000c8020000f2
:020000040000fa
:04004400c8020000ee
:020000040000fa
:04004800c8020000ea
:020000040000fa
:04004c00c8020000e6
:020000040000fa
:04005000c8020000e2
:020000040000fa
:04005400c8020000de
:020000040000fa
:04005800c8020000da
:020000040000fa
:04005c00c8020000d6
:020000040000fa
:04006000c8020000d2
:020000040000fa
:04006400c8020000ce
:020000040000fa
:04006800c8020000ca
:020000040000fa
:04006c00c8020000c6
:020000040000fa
:04007000c8020000c2
:020000040000fa
:04007400c8020000be
:020000040000fa
:04007800c8020000ba
:020000040000fa
:04007c00c8020000b6
:020000040000fa
:04008000c8020000b2
:020000040000fa
:04008400c8020000ae
:020000040000fa
:04008800c8020000aa
:020000040000fa
:04008c00c8020000a6
:020000040000fa
:04009000c8020000a2
:020000040000fa
:04009400c80200009e
:020000040000fa
:04009800c80200009a
:020000040000fa
:04009c00c802000096
:020000040000fa
:0400a000c802000092
:020000040000fa
:0400a400c80200008e
:020000040000fa
:0400a800c80200008a
:020000040000fa
:0400ac00c802000086
:020000040000fa
:0400b000c802000082
:020000040000fa
:0400b400c80200007e
:020000040000fa
:0400b800c80200007a
:020000040000fa
:0400bc00c802000076
:020000040000fa
:0400c000c802000072
:020000040000fa
:0400c400c80200006e
:020000040000fa
:0400c800c80200006a
:020000040000fa
:0400cc00c802000066
:020000040000fa
:0400d000c802000062
:020000040000fa
:0400d400c80200005e
:020000040000fa
:0400d800c80200005a
:020000040000fa
:0400dc00c802000056
:020000040000fa
:0400e000c802000052
:020000040000fa
:0400e400c80200004e
:020000040000fa
:0400e800c80200004a
:020000040000fa
:0400ec00c802000046
:020000040000fa
:0400f000c802000042
:020000040000fa
:0400f400c80200003e
:020000040000fa
:0400f800c80200003a
:020000040000fa
:0400fc00c802000036
:020000040000fa
:04010000c802000031
:020000040000fa
:04010400c80200002d
:020000040000fa
:04010800c802000029
:020000040000fa
:04010c00c802000025
:020000040000fa
:04011000c802000021
:020000040000fa
:04011400c80200001d
:020000040000fa
:04011800c802000019
:020000040000fa
:04011c00c802000015
:020000040000fa
:04012000c802000011
:020000040000fa
:04012400c80200000d
:020000040000fa
:04012800c802000009
:020000040000fa
:04012c00c802000005
:020000040000fa
:04013000c802000001
:020000040000fa
:04013400c8020000fd
:020000040000fa
:04020800c802000028
:020000040000fa
:04020c00c802000024
:020000040000fa
:04021000c802000020
:020000040000fa
:04021400c80200001c
:020000040000fa
:04021800c802000018
:020000040000fa
:04021c00c802000014
:020000040000fa
:04022000c802000010
:020000040000fa
:04022400c80200000c
:020000040000fa
:04022800c802000008
:020000040000fa
:04022c00c802000004
:020000040000fa
:04023000c802000000
:020000040000fa
:04023400c8020000fc
:020000040000fa
:04023800c8020000f8
:020000040000fa
:04023c00c8020000f4
:020000040000fa
:04024000c8020000f0
:020000040000fa
:04024400c8020000ec
:020000040000fa
:04024800c8020000e8
:020000040000fa
:04024c00c8020000e4
:020000040000fa
:04025000c8020000e0
:020000040000fa
:04025400c8020000dc
:020000040000fa
:04025800c8020000d8
:020000040000fa
:04025c00c8020000d4
:020000040000fa
:04026000c8020000d0
:020000040000fa
:04026400c8020000cc
:020000040000fa
:04026800c8020000c8
:020000040000fa
:04026c00c8020000c4
:020000040000fa
:04027000c8020000c0
:020000040000fa
:04027400c8020000bc
:020000040000fa
:04027800c8020000b8
:020000040000fa
:04027c00c8020000b4
:020000040000fa
:04028000c8020000b0
:020000040000fa
:04028400c8020000ac
:020000040000fa
:04028800c8020000a8
:020000040000fa
:04028c00c8020000a4
:020000040000fa
:04029000c8020000a0
:020000040000fa
:04029400c80200009c
:020000040000fa
:04029800c802000098
:020000040000fa
:04029c00c802000094
:020000040000fa
:0402a000c802000090
:020000040000fa
:0402a400c80200008c
:020000040000fa
:0402a800c802000088
:020000040000fa
:0402ac00c802000084
:020000040000fa
:0402b000c802000080
:020000040000fa
:0402b400c80200007c
:020000040000fa
:0402b800c802000078
:020000040000fa
:0402bc00c802000074
:020000040000fa
:0402c000c802000070
:020000040000fa
:0402c400c80200006c
:020000040000fa
:0402c800c802000068
:020000040000fa
:0402cc00c802000064
:020000040000fa
:0402d000c802000060
:020000040000fa
:0402d400c80200005c
:020000040000fa
:0402d800c802000058
:020000040000fa
:0402dc00c802000054
:020000040000fa
:0402e000c802000050
:020000040000fa
:0402e400c80200004c
:020000040000fa
:0402e800c802000048
:020000040000fa
:0402ec00c802000044
:020000040000fa
:0402f000c802000040
:020000040000fa
:0402f400c80200003c
:020000040000fa
:0402f800c802000038
:020000040000fa
:0402fc00c802000034
:020000040000fa
:04030000c80200002f
:020000040000fa
:04030400c80200002b
:020000040000fa
:04030800c802000027
:020000040000fa
:04030c00c802000023
:020000040000fa
:04031000c80200001f
:020000040000fa
:04031400c80200001b
:020000040000fa
:04031800c802000017
:020000040000fa
:04031c00c802000013
:020000040000fa
:04032000c80200000f
:020000040000fa
:04032400c80200000b
:020000040000fa
:04032800c802000007
:020000040000fa
:04032c00c802000003
:020000040000fa
:04033000c8020000ff
:020000040000fa
:04033400c8020000fb
:020000040000fa
:100400004f8020000e7f22000e01880000000000b7
:10041000000020000000e000020032000001200087
:1004200020028800140007005b0007000000e000c5
:1004300003003a00008c2000010020000200370079
:100440000000200001002000810f70000100320038
:1004500014000700000020000000e000020032004d
:1004600000000200000000006c0502000000000017
:100470000040da000000fe004440a9000000200017
:100480000000e0000300320000002000a00188000e
:100490004440a800000006008a1f78008b1f7800e7
:1004a0000000060091018800800478000000eb0045
:1004b0001a003700e284440032a0b4009905ba0063
:1004c000e284440032a0b4009906ba00e2844400f9
:1004d00032a0b4000006eb00476fde00fd07b2005b
:1004e000636ce10003003a00ebff07000000eb0043
:1004f0000a003700606ce10004003a00005deb0088
:100500008b05e900fdff3e00040037006168e10053
:10051000010032000086eb000b00070019c7ba008b
:100520001905ba000e04e00003003a000a00e000da
:10053000e0ff3a0000000600fe07b2009e018800be
:100540008a047800f5ff3700395dba008b05e900b1
:100550000c003200295dba008b05e900080032006a
:100560000c00e00003003a00e284440032a0b40032
:10057000f5ff370019ddba008b05e900faff3a00f4
:100580008904e800e184440032a0b40000000600c1
:0c0590000040da000000fe000000050042
:020000040000fa
:10059c000000fa00f03f20001030880030382800ae
:1005ac000030880010002000603088000088230094
:1005bc001100200018010700008823001100200002
:1005cc00150107000426ef0030032000403088009e
:1005dc0050032000010020000f0107000426ef004b
:1005ec002003200040308800500320000100200030
:1005fc00090107000426ef0080032000403088002a
:10060c005003200001002000030107000426ef0026
:10061c00c000200040308800500320000100200062
:10062c00fd0007000426ef00600020004030880029
:10063c005003200001002000f70007006d000700a8
:10064c0010c0b3000080fa00000006000400fa009d
:10065c00000f7800110798000a0037001e00780080
:10066c00104078000000fb000000e0001100320098
:10067c001e007800104078001e0fe80010000700e4
:10068c00000000001e00900000f0a7000000ea002f
:10069c000000ea004f00de00004078009e00900051
:1006ac008100e900110798000004e000ebff3a001c
:1006bc0001003700000000000080fa000000060076
:1006cc000200fa00004f78001e00fb00ea0f5000f9
:1006dc000e003200ea0f500003003c00e80f5000ff
:1006ec00150032001b003700ec0f500017003200d1
:1006fc00ed0f500017003a0002c8bf00ea4f50003f
:10070c00360032004c0007003500370002c8bf002d
:10071c00ed4f5000010032004700070000c8bf0039
:10072c000004e00002003a00b00007002c00370083
:10073c00a30007002a0037005300070000c2b300d3
:10074c00dfff0700500007002500370029000700d5
:10075c002300370001c8bf00f04f500014003a00ce
:10076c000168ef0000c8bf000004e00009003a0077
:10077c000426ef00000c20004030880050032000bd
:10078c0001002000a400070010c0b30000e8b7006f
:10079c00070037000426ef000008200040308800d6
:1007ac0050032000010020009b0007000068ef00b0
:1007bc0010002000203088001e00fb004030880014
:1007cc0050032000010020009300070001c8bf0067
:1007dc000040e80001e8b70001003700000000000d
:1007ec001e41780021802000824878000080fa00a9
:1007fc00000006000000fa000426ef0010002000a4
:10080c0040308800a08820000100200082000700f2
:10081c000426ef002000200040308800a088200033
:10082c00010020007c0007000068ef000168ef0069
:10083c000080fa00000006000000fa0000c8bf00ab
:10084c000004e00007003a000426ef000008200036
:10085c004030880050032000010020006e0007008b
:10086c00060037000426ef00000c20004030880002
:10087c005003200001002000670007000168ef0012
:10088c000080fa00000006000200fa0001c8bf0058
:10089c000004e0001c003a0000c8bf000004e000a7
:1008ac0009003a000426ef00000c200040308800bc
:1008bc0050032000010020005700070010c0b300b7
:1008cc0000e8b700070037000426ef0000082000fe
:1008dc004030880050032000010020004e0007002b
:1008ec000068ef000040eb00004f7800020037007a
:1008fc00100007001e4fe8001e407800ee4f50001d
:10090c00fbff36000900370001c8bf000040e900ba
:10091c0001e8b7000426ef000001200040308800f9
:10092c0050032000010020003b0007000080fa006b
:10093c00000006000000fa000426ef004001200031
:10094c0040308800500320000100200032000700d6
:10095c0001c8bf000040e80001e8b70001c8bf00b3
:10096c00f04f500014003a000168ef0000c8bf00bf
:10097c000004e00009003a000426ef00000c2000ff
:10098c0040308800500320000100200022000700a6
:10099c0010c0b30000e8b700070037000426ef00d2
:1009ac000008200040308800500320000100200087
:1009bc00190007000068ef000080fa000000060034
:1009cc000200fa000040eb00004f780002003700f4
:1009dc00adff07001e4fe8001e407800ef4f50009f
:1009ec00fbff36000080fa00000006000200fa004f
:1009fc000040eb00004f780002003700cdff0700ed
:100a0c001e4fe8001e407800ef4f5000fbff3600f1
:100a1c000080fa00000006000400fa00008fbe00ff
:100a2c0005003700000000000081eb008081eb0026
:100a3c001e0f41005e9749001e00be00e00f5000e3
:100a4c00e08f5800f7ff3a000080fa000000060023
:100a5c000200fa00004f78001e4078000004e0000d
:100a6c00070032000426ef00f00020004030880020
:100a7c005003200001002000e7ff070006003700ac
:100a8c000426ef00c00020004030880050032000f6
:100a9c0001002000e0ff07000080fa0000000600c3
:100aac000000fa000000eb003301070050002000aa
:100abc0021010700c022ef00c422ef00100020002b
:100acc00850107000080fa00000006001600fa00fd
:100adc00f01f2000500798000040eb00004f7800fa
:100aec0010002000460107000004e0000200320064
:100afc000040eb000100370010c0b3001047980015
:100b0c00e7ff070050002000e10007006007980095
:100b1c006e009000e10f400005003a000019200023
:100b2c00010020008501070000000000f5ff3700e0
:100b3c0010002000320107000004e0000200320027
:100b4c000040eb000100370010c0b300604f98006c
:100b5c001e409000e14f50000d003a006e4890008e
:100b6c000004e0000a003a0000c429000100200043
:100b7c007201070010002000210107000004e000b2
:100b8c00030032000040eb00004f7800c422ef005d
:100b9c00ee489000114798001e4078000004e000d9
:100bac0092003a00ee0090005e009000808f5000a2
:100bbc008e00360010c0b300004f78000040eb00f0
:100bcc00204798000000eb002007980068003700d1
:100bdc0010002000201688000000eb003007980061
:100bec002a00370000352c000100200053010700bb
:100bfc0050002000a6000700000f98000e0890007f
:100c0c00e10f40000a0032008e0890005e00900058
:100c1c00808f500006003100c422ef000040eb0032
:100c2c00004f780010c0b300204798001a0037001e
:100c3c0010002000f20007000004e0001000320059
:100c4c0000c42900010020003c0107001000200016
:100c5c00eb0007000004e00009003200c422ef00a2
:100c6c000040eb00004f780010c0b3002047980004
:100c7c0000902000d103200030010700060037004f
:100c8c003e0090000000e800300798003e00900005
:100c9c00f80f5000d3ff34002e4090000004e00009
:100cac0037003a00c422ef000000eb004007980028
:100cbc002600370000352c00010020001f01070022
:100ccc005000200072000700100f98001e089000c2
:100cdc00e10f4000090032009e0890005e00900079
:100cec00808f5000050031000040eb00004f780071
:100cfc0010c0b300204798001700370010002000e8
:100d0c00bf0007000004e0000d00320000c4290001
:100d1c00010020000901070010002000b8000700a6
:100d2c000004e00006003200c422ef000040eb009b
:100d3c00004f780010c0b300204798000600370021
:100d4c004e0090000000e800400798004e00900014
:100d5c00f80f5000d7ff34002e4090000004e00044
:100d6c0009003a002e0090000000e80020079800cf
:100d7c002e009000e70f500095ff34000300370061
:100d8c000000000001003700000000002e40900021
:100d9c000004e00004003200c422ef000040eb002d
:100dac00004f78001b00370050002000380007006f
:100dbc00200f98002e089000e10f40000700320031
:100dcc00ae0890005e009000808f50000300390048
:100ddc000080eb00201688000e003700c422ef00c4
:100dec000040eb00004f78000a0037001e407800ee
:100dfc000004e00007003200ee0090005e0090005e
:100e0c00808f5000030031000040eb00004f780051
:100e1c00c422ef00803e200001002000c700070024
:100e2c0038ff37000400fa00100798001e009000ed
:100e3c00e40f500004003200e50f500004003200b3
:100e4c0000c0eb001000370000000000010037006c
:100e5c00000000001e0090000d000700d1cc2c00fb
:100e6c000100b8004308de00004f780040c6b30014
:100e7c009e40780080cf50000200360040c6b30080
:100e8c00004f78001e4078000080fa000000060039
:100e9c000400fa00100798001e009000e40f5000a8
:100eac0004003200e50f5000040032000080eb001b
:100ebc001f00370000000000010037000000000098
:100ecc009e009000411988002023a8000000eb0030
:100edc00000f780002003700000000001e0fe80031
:100eec00703e20009e007800808f5000faff360084
:100efc002023a9000000eb00000f7800020037004f
:100f0c00000000001e0fe800703e20009e007800dc
:100f1c00808f5000faff360000000000001980009e
:100f2c00610060000000e000fcff3200001880004f
:100f3c000080fa00000006000200fa00000f7800a2
:100f4c001e007800e40f500005003200e50f500041
:100f5c0006003a002ca3a90010c0b300040037000f
:100f6c002c83a90010c0b300010037000040eb0037
:100f7c000080fa00000006000200fa00000f780062
:100f8c001e0078000000e0001a003a0011198000e1
:100f9c00f0ff2100008060001019880000c0eb00f9
:100fac0024e3b70001198000f0f12f0000806000ed
:100fbc000019880021198000f00f2e0000806000bd
:100fcc0000c0a0002019880001198000f0cf2f006c
:100fdc0000806000001988001119800030fc2f007f
:100fec00008060001019880021e3a80010c0b30035
:100ffc00010037000040eb000080fa000000060002
:10100c000200fa00000f78001e007800e20f50007a
:10101c0013003200e20f500003003e00e10f5000bd
:10102c000600320029003700e30f50001500320093
:10103c00e40f50001c00320024003700a116800081
:10104c00000420000080600000f0a7000000ea000f
:10105c000000e9004f00de00004078001c00370063
:10106c00a1168000000820000080600000f0a7009e
:10107c000000ea000000e9004f00de0000407800ac
:10108c00130037001116800000082000008060005b
:10109c0000f0a7000000ea000000e9004f00de00ad
:1010ac00004078000a003700a116800000002200e2
:1010bc000080600000f0a7000000ea000000e900da
:1010cc004f00de0000407800010037000040eb00cc
:1010dc000080fa00000006000200fa00000f780001
:1010ec001e007800e20f50000c003200e20f50009e
:1010fc0003003e00e10f5000060032000d003700e7
:10110c00e30f500007003200e40f500007003200dc
:10111c0008003700d2c2a80006003700d2e2a800af
:10112c0004003700c0e2a80002003700d3a2a800d8
:0c113c00000000000080fa000000060027
:020000040000fa
:10114800f03fb1000180b10006003500ee03090050
:1011580000000000403fb1000180b100fbff3d00ee
:101168001000b000203fb0000200350000800900e8
:08117800000000000000060069
:020000040000fa
:101180000008000004000000000000000000000053
:020000040000fa
:020000040002f8
:04aff8009dfa0000be
:020000040000fa
:020000040002f8
:04affc00ff3f000013
:00000001FF
